S024000065766B6D696D787274313137305F696C65645F626C696E6B795F636D372E733139D5
S113300000F003001135000069350000AF790000BD
S11330106D3500006F3500007135000000000000C0
S113302000000000000000000000000073350000F4
S113303075350000000000007735000005390000F8
S1133040DF720000E7720000EF720000F772000008
S1133050FF720000077300000F7300001773000075
S11330601F730000277300002F73000037730000E4
S11330703F730000477300004F7300005773000054
S11330805F730000677300006F73000077730000C4
S11330907F730000877300008F7300009773000034
S11330A09F730000A7730000AF730000B7730000A4
S11330B0BF730000C7730000CF730000D773000014
S11330C0DF730000E7730000EF730000F773000084
S11330D0FF730000077400000F74000017740000F1
S11330E01F740000277400002F7400003774000060
S11330F03F740000477400004F74000057740000D0
S11331005F740000677400006F740000777400003F
S11331107F740000877400008F74000097740000AF
S11331209F740000A7740000AF740000B77400001F
S1133130BF740000C7740000CF740000D77400008F
S1133140DF740000E7740000EF740000F7740000FF
S1133150FF740000077500000F750000177500006C
S11331601F750000277500002F75000037750000DB
S11331703F750000477500004F750000577500004B
S11331805F750000677500006F75000077750000BB
S11331907F750000877500008F750000977500002B
S11331A09F750000A7750000AF750000B77500009B
S11331B0BF750000C7750000CF750000D77500000B
S11331C0DF750000E7750000EF750000F77500007B
S11331D0FF750000077600000F76000017760000E8
S11331E01F760000277600002F7600003776000057
S11331F03F760000477600004F76000057760000C7
S11332005F760000677600006F7600007776000036
S11332107F760000877600008F76000097760000A6
S11332209F760000A7760000AF760000B776000016
S1133230BF760000C7760000CF760000D776000086
S1133240DF760000E7760000EF760000F7760000F6
S1133250FF760000077700000F7700001777000063
S11332601F770000277700002F77000037770000D2
S11332703F770000477700004F7700005777000042
S11332805F770000677700006F77000077770000B2
S11332907F770000877700008F7700009777000022
S11332A09F770000A7770000AF770000B777000092
S11332B0BF770000C7770000CF770000D777000002
S11332C0DF770000E7770000EF770000F777000072
S11332D0FF770000077800000F78000017780000DF
S11332E01F780000277800002F780000377800004E
S11332F03F780000477800004F78000057780000BE
S11333005F780000677800006F780000777800002D
S11333107F780000877800008F780000977800009D
S11333209F780000A7780000AF780000B77800000D
S1133330BF780000C7780000CF780000D77800007D
S1133340DF780000E7780000EF780000F7780000ED
S1133350FF780000077900000F790000177900005A
S11333601F790000277900002F79000037790000C9
S11333703F790000477900004F7900005779000039
S11333805F790000677900006F79000077790000A9
S11333907F790000877900008F7900009779000019
S11333A09F790000A7790000BC940000BC94000041
S11333B004000000BC940000000000200000000095
S11333C0BC9400000000242000000000BC94000015
S11333D000002C2000000000BC94000000003020FD
S11333E000000000BC940000000034200000000035
S11333F0BC9400000000352000000000BC940000D4
S11334000000008000000000BC94000000000000E8
S113341000000000BC940000002000000000000038
S1133420C09400001C010000000000200000000007
S1133430000024200000000000002C2000000000F8
S113344000003020000000000000342000000000D4
S11334500000352000000000000000800000000093
S11334600000000000000000002000000000000038
S113347010B40B464FF0000C05E050F8044B43F831
S1133480044B0CF1040C9445F7D30D4B5B6913F416
S1133490803F11D0002A0FDD01F01F031A44BFF34F
S11334A04F8F074BC3F868122031203A002AF8DC0A
S11334B0BFF34F8FBFF36F8F5DF8044B704700BFAE
S11334C000ED00E010B40346002203E0002443F8BA
S11334D0044B04328A42F9D30C4B5B6913F4803FEA
S11334E011D000290FDD00F01F031944BFF34F8FE3
S11334F0064BC3F86802203020390029F8DCBFF3FA
S11335004F8FBFF36F8F5DF8044B704700ED00E001
S113351010B572B6104B83F3088802F0F3FA0F4B20
S113352007E003F10C049A6859681868FFF7A0FFD4
S113353023460B4A9342F4D306E01C46596854F8D8
S1133540080BFFF7BFFF2346064A9342F5D362B642
S113355004F0F3FDFEE700BF00F00300A833000011
S11335602034000070340000FEE7FEE7FEE7FEE7CB
S1133570FEE7FEE7FEE7FEE7FEE7FEE7FFFFFFFFED
S113358080B58CB000AF0346FB710023FB6297F952
S11335900730042B06D097F90730052B02D03448A6
S11335A000F068F897F90730042B01D1022300E0FA
S11335B003230021184604F022FAB862BB6A5B0EAA
S11335C003F007037B62BB6A03F07F03BB6297F9D6
S11335D00730042B01D1022300E0032330211846D5
S11335E004F00DFA07EE900AB8EE677B87ED067BD0
S11335F097F90730042B01D1022300E00323202193
S1133600184604F0FCF907EE900AB8EE677B87EDE4
S1133610047BBB6A07EE903AB8EE676B97ED044BF8
S113362097ED065B84EE057B36EE077B9FED0E6B14
S113363027EE065B01227B6A02FA03F307EE903A57
S1133640B8EE676B85EE067B87ED027B97ED027B18
S1133650FCEEC77B17EE903AFB62FB6A18463037E4
S1133660BD4680BDAFF300800000000060E37641FA
S1133670D889000080B582B000AF786079680248CC
S113368000F0B8F800BEFDE77885000080B584B08E
S113369000AF786039607B68002BFCD03B68002B5E
S11336A0FCD00C4B1B68002B01D100230DE03A68C1
S11336B07968094804F036FC0346FB81FB89002B3A
S11336C001D13B6801E04FF0FF3318461037BD4687
S11336D080BD00BFE0940000D894000080B58EB097
S11336E000AFB9607B600346FB731346BB730023D2
S11336F0FB867B687B61BB68BB6100233B7700234F
S11337007B770123BB770123FB77002387F82030E5
S1133710002387F82130FB7B87F82230BB7B87F8B6
S11337202C3048F64173FB85BB7B012B03D107F199
S113373014033B6317E0BB7B022B03D143F22153F9
S1133740FB8610E0BB7B032B03D143F22153FB86A2
S113375009E0BB7B042B03D143F22153FB8602E037
S113376043F22153FB86FB8E43F22152934230D025
S113377020220021194804F0E7FC184B184A1A606B
S1133780164B1B6807F124021146184604F042FB4D
S11337900346FB86FB8E002BFCD1124B1B780F4B90
S11337A01B681149184604F065FB0346FB86FB8E33
S11337B0002BFCD1094B1B680C49184604F082FB12
S11337C00346FB86FB8E002BFCD1044B1B68084A86
S11337D01360FB8E18463837BD4680BDC094000088
S11337E0C4940000D8950000D8940000DC94000034
S11337F0E09400000FB480B5A4B000AF0023C7F874
S113380088300023C7F88C3000237B6007F108035D
S11338107C220021184604F097FC124B1B68002BF5
S113382016D007F19C03C7F884303A1D0E4BD7F825
S11338308410D7F8980003F00AFCC7F88800D7F87A
S113384088203B1D11461846FFF720FFC7F88C005F
S1133850D7F88C3018469037BD46BDE8804004B098
S1133860704700BFE0940000216C000080B483B076
S113387000AF03463960FB80B7F90630002B0ADB42
S11338803B68DAB20C49B7F906301201D2B20B44E4
S113389083F800230AE03B68DAB20849FB8803F0A6
S11338A00F03043B1201D2B20B441A7600BF0C374B
S11338B0BD465DF8047B704700E100E000ED00E0E8
S11338C080B582B000AF78607B68013BB3F1807F44
S11338D001D301230FE00A4A7B68013B53600F21A7
S11338E04FF0FF30FFF7C2FF054B00229A60044BF4
S11338F007221A60002318460837BD4680BD00BF62
S113390010E000E080B400AF064B1B68002B04D02D
S1133910044B1B68013B034A136000BFBD465DF8BE
S1133920047B7047E494000080B483B000AF7860F7
S1133930074A7B68136000BF054B1B68002BFBD153
S113394000BF00BF0C37BD465DF8047B704700BF65
S1133950E494000080B500AF03F00CF802F0F0FB33
S113396004F033FB04F0D5F9134B1B68134AA2FB94
S113397003239B091846FFF7A3FF0346002B00D03F
S1133980FEE74FF4FA60FFF7CFFF0D4B1B78DBB275
S1133990002B08D0002203210A4801F05BFB084BEE
S11339A000221A70EDE701220321064801F052FBC0
S11339B0034B01221A70E4E7BC940000D34D62105B
S11339C0D99500000040C64080B487B000AF3B608A
S11339D00346FB710B46BB7113467B71FB79062BC7
S11339E000F2008301A252F823F000BF093A00005C
S11339F0B53A0000A13B0000A13C00009D3D000041
S1133A00893E0000393F0000BB79002B24D0A34B32
S1133A10D3F82038A14A23F48033C2F820389F4BCE
S1133A20D3F820387B617B6923F0FF037B617B79CA
S1133A307A6913437B61994A7B69C2F82038974AB3
S1133A403B68C2F83038954BD3F80035934A83F479
S1133A508033C2F80035C6E2904BD3F820387B613E
S1133A607B6923F480337B617B6943F480337B611E
S1133A708A4A7B69C2F82038884BD3F820387B61A6
S1133A807B6923F0FF037B617B797A6913437B6154
S1133A90824A7B69C2F82038804BD3F800357F4ACC
S1133AA083F48033C2F800357C4BD3F840383B6153
S1133AB03B6999E2BB79002B34D0784BD3F850386A
S1133AC003F40073FB60754BD3F85038734A23F446
S1133AD08033C2F85038714BD3F850387B617B691E
S1133AE023F0FF037B617B797A6913437B616B4A23
S1133AF07B69C2F85038694A3B68C2F86038674B42
S1133B00D3F85038654A83F48073C2F85038634B55
S1133B10D3F8503803F40073BB60BA68FB689A4268
S1133B20F5D060E25D4BD3F8503803F40073FB60CA
S1133B305A4BD3F850387B617B6923F480337B6123
S1133B407B6943F480337B61544A7B69C2F8503803
S1133B50524BD3F850387B617B6923F0FF037B61C0
S1133B607B797A6913437B614C4A7B69C2F850388C
S1133B704A4BD3F85038494A83F48073C2F850381A
S1133B80464BD3F8503803F40073BB60BA68FB6843
S1133B909A42F5D0414BD3F870383B613B6923E23C
S1133BA0BB79002B3CD03D4BD3F8803803F4007331
S1133BB0FB603A4BD3F88038384A23F48033C2F898
S1133BC08038364BD3F880387B617B6923F0FF0360
S1133BD07B617B797A6913437B61304A7B69C2F8E4
S1133BE080382E4A3B68C2F890382C4BD3F8803882
S1133BF02A4A83F48073C2F88038284BD3F880387B
S1133C0003F40073BB60BA68FB689A42F5D0234B97
S1133C10D3F88038214A23F48033C2F88038E2E1B3
S1133C201E4BD3F8803803F40073FB601B4BD3F8AE
S1133C3080387B617B6923F480337B617B6943F447
S1133C4080337B61154A7B69C2F88038134BD3F803
S1133C5080387B617B6923F0FF037B617B797A6920
S1133C6013437B610D4A7B69C2F880380B4BD3F850
S1133C7080380A4A83F48073C2F88038074BD3F83B
S1133C80803803F40073BB60BA68FB689A42F5D0CD
S1133C90024BD3F8A0383B613B69A5E10040C84022
S1133CA0BB79002B3CD0A34BD3F8B03803F400739A
S1133CB0FB60A04BD3F8B0389E4A23F48033C2F89B
S1133CC0B0389C4BD3F8B0387B617B6923F0FF0399
S1133CD07B617B797A6913437B61964A7B69C2F87D
S1133CE0B038944A3B68C2F8C038924BD3F8B03825
S1133CF0904A83F48073C2F8B0388E4BD3F8B0384E
S1133D0003F40073BB60BA68FB689A42F5D0894B30
S1133D10D3F8B038874A23F48033C2F8B03862E16C
S1133D20844BD3F8B03803F40073FB60814BD3F8B1
S1133D30B0387B617B6923F480337B617B6943F416
S1133D4080337B617B4A7B69C2F8B038794BD3F806
S1133D50B0387B617B6923F0FF037B617B797A69EF
S1133D6013437B61734A7B69C2F8B038714BD3F853
S1133D70B038704A83F48073C2F8B0386D4BD3F80E
S1133D80B03803F40073BB60BA68FB689A42F5D09C
S1133D90684BD3F8D0383B613B6925E1BB79002BF4
S1133DA034D0644BD3F8203903F40073FB60614BC7
S1133DB0D3F820395F4A23F48033C2F820395D4BAD
S1133DC0D3F820397B617B6923F0FF037B617B7926
S1133DD07A6913437B61574A7B69C2F82039554A93
S1133DE03B68C2F83039534BD3F82039514A83F435
S1133DF08073C2F820394F4BD3F8203903F4007391
S1133E00BB60BA68FB689A42F5D0ECE0494BD3F842
S1133E10203903F40073FB60464BD3F820397B61EF
S1133E207B6923F480337B617B6943F480337B615A
S1133E30404A7B69C2F820393E4BD3F820397B6174
S1133E407B6923F0FF037B617B797A6913437B6190
S1133E50384A7B69C2F82039364BD3F82039354AC1
S1133E6083F48073C2F82039324BD3F8203903F439
S1133E700073BB60BA68FB689A42F5D02D4BD3F847
S1133E8040393B613B69AFE0BB79002B24D0294B1F
S1133E90D3F8E038274A23F48033C2F8E038254BBE
S1133EA0D3F8E0387B617B6923F0FF037B617B7986
S1133EB07A6913437B611F4A7B69C2F8E0381D4A63
S1133EC03B68C2F8F0381B4BD3F80034194A83F42A
S1133ED00043C2F8003486E0164BD3F8E0387B6127
S1133EE07B6923F480337B617B6943F480337B619A
S1133EF0104A7B69C2F8E0380E4BD3F8E0387B6196
S1133F007B6923F0FF037B617B797A6913437B61CF
S1133F10084A7B69C2F8E038064BD3F80034054AF6
S1133F2083F40043C2F80034024BD3F810393B61E8
S1133F303B6959E00040C840BB79002B24D02D4B8D
S1133F40D3F8E0382B4A23F48033C2F8E038294B05
S1133F50D3F8E0387B617B6923F0FF037B617B79D5
S1133F607A6913437B61234A7B69C2F8E038214AAA
S1133F703B68C2F8F0381F4BD3F870351D4A83F004
S1133F800103C2F870352EE01A4BD3F8E0387B6198
S1133F907B6923F480337B617B6943F480337B61E9
S1133FA0144A7B69C2F8E038124BD3F8E0387B61DD
S1133FB07B6923F0FF037B617B797A6913437B611F
S1133FC00C4A7B69C2F8E0380A4BD3F87035094AC9
S1133FD083F00103C2F87035064BD3F800393B6116
S1133FE03B6901E000BF002318461C37BD465DF85D
S1133FF0047B70470040C84080B483B000AF0346E0
S1134000FB71074AFB79DB0113441B681B0A03F0AD
S1134010070318460C37BD465DF8047B704700BFA4
S11340200000CC4080B483B000AF0346FB71064A65
S1134030FB79DB0113441B68DBB2013318460C37F0
S1134040BD465DF8047B70470000CC4090B585B058
S113405000AF0346FB71FB791846FFF7CDFFF8600C
S1134060FB790E4ADB001A44FB6813441B7818469C
S113407000F0E0FD0446FB791846FFF7D3FF034642
S1134080B4FBF3F3BB60BB68002B02D10448FFF719
S1134090F1FABB6818461437BD4690BD8C85000004
S11340A00488000080B584B000AF78607B685B68EA
S11340B0D02B03D87B685B68672B02D84848FFF78E
S11340C0D9FA484BD3F8003203F40053002B34D010
S11340D0444BD3F80032DA437B685B681340DBB2AD
S11340E0002B2AD13F4BD3F80032DA437B681B788C
S11340F0DB03134003F4C033002B1ED1394BD3F838
S1134100003203F48043002B07D1364BD3F800323E
S1134110344A43F48043C2F80032324BD3F80032BD
S113412003F08043002B57D02E4BD3F800322D4A96
S113413023F08043C2F800324EE02A4801F05EFBCF
S1134140284BD3F8003223F00053FB60FB6803F4E0
S1134150C043002B0BD0FB6823F4C043FB60FB6817
S113416043F08043FB601F4AFB68C2F80032FA68E0
S11341701D4B1340FB607B685B68DAB27B681B787D
S1134180DB0303F4C0331A43FB681A43174B13438E
S1134190FB60144AFB68C2F80032BFF34F8F00BFC4
S11341A0BFF36F8F00BF12491E2000F033FE00BF23
S11341B00C4BD3F8003203F00053002BF8D0FB680B
S11341C043F48043FB60FB6823F08043FB60054AB3
S11341D0FB68C2F8003200E000BF1037BD4680BD66
S11341E01C8800000040C840007FFEFF0020004003
S11341F000CA9A3B80B584B000AF7860684BD3F8AE
S1134200403203F40003002B44D07B68002B21D000
S1134210634BD3F8603203F40043002B06D17B6870
S11342201B7A83F00103DBB2002B13D17B681B7A6A
S1134230DB039AB27B685B681B881B041A437B68A8
S11342405B685B88C3F30E031A43554BD3F86032A3
S11342509A421FD1524BD3F8403203F40053002B3F
S113426007D14F4BD3F840324D4A43F40053C2F8C0
S113427040324B4BD3F8403203F08043002B00F024
S11342808A80474BD3F84032454A23F08043C2F832
S1134290403280E0424801F0B1FA414BD3F8703229
S11342A03F4A43F08033C2F870323D4BD3F840327A
S11342B0FB60FA683B4B1340002B0BD0FA683A4B77
S11342C01340FB60FB6843F08043FB60344AFB68A7
S11342D0C2F840327B68002B1DD07B681B7A002B10
S11342E019D07B685B68002B15D07B681B682C4A4F
S11342F023F04043C2F8A0327B685B681B881A0431
S11343007B685B685B88C3F30E031343244A43F45E
S11343100043C2F86032254BFB60214AFB68C2F8B7
S1134320403223491E2000F075FDFA68214B1343E7
S1134330FB601B4AFB68C2F840321D49FA2000F0BA
S113434069FDFB6823F40063FB60154AFB68C2F84F
S1134350403200BF124BD3F8403203F00053B3F1A4
S1134360005FF7D1FB6843F40053FB600C4AFB6821
S1134370C2F84032FB6823F08043FB60084AFB68C4
S1134380C2F84032064BD3F87032054A03F07F334B
S1134390C2F8703200E000BF1037BD4680BD00BFD8
S11343A00040C84000208000FFDF7FFF080000407D
S11343B000CA9A3B0008800080B586B000AF03466F
S11343C0FB710B46BB7113467B7100237B61002399
S11343D03B617B79232B02D87B790B2B02D83348A2
S11343E0FFF748F997F90730022B02D0032B05D0C9
S11343F009E02F4B7B612F4B3B6107E02E4B7B6128
S11344002E4B3B6102E02E48FFF734F97B691A68B2
S1134410BB79DB00402101FA03F31340FB607B69A5
S11344201A68BB79DB00802101FA03F31A437B6924
S11344301A607B691A68BB79DB003F2101FA03F338
S1134440DB431A407B691A607B691A687B7903F045
S11344503F01BB79DB0001FA03F31A437B691A605D
S11344603B691A68BB79022101FA03F35A403B699C
S11344701A607B691A68BB79DB00802101FA03F3B7
S1134480DB431A407B691A6000BF7B691A68BB79F9
S1134490DB00402101FA03F31A40FB689A42F4D08E
S11344A000BF00BF1837BD4680BD00BFA088000014
S11344B07042C8405042C8403042C8402042C840C0
S11344C0F488000080B584B000AF03460A46FB714F
S11344D01346BB710023FB600023BB6097F90730D0
S11344E0022B06D097F90730032B02D02348FFF79D
S11344F0C1F897F90730022B02D0032B0DD019E035
S11345001F4BD3F87022BB79DB003F2101FA03F380
S11345101340BB601B4BFB600FE0194BD3F83022F8
S1134520BB79DB003F2101FA03F31340BB60164B58
S1134530FB6002E01548FFF79DF8BB79DB00BA6821
S113454022FA03F3BB60BB680B2B02D9BB68232B95
S113455002D90F48FFF78EF8BB68002B08D0FA6821
S1134560BB68B2FBF3F21346DB0013445B0000E0CC
S1134570002318461037BD4680BD00BF0C890000DB
S11345800040C84000A4781F00389C1C54890000D7
S11345906C89000080B582B000AF374BD3F810327D
S11345A003F40013002B1ED0334BD3F8103203F462
S11345B00053002B07D1304BD3F810322E4A43F46A
S11345C00053C2F810322C4BD3F8103203F080435E
S11345D0002B4CD0284BD3F81032274A23F08043C9
S11345E0C2F8103243E0244801F008F9224BD3F812
S11345F03032214A43F08033C2F830321F4B7B60A3
S11346001D4A7B68C2F810321D491E2000F002FCCE
S11346107A681C4B13437B60174A7B68C2F81032DC
S113462017491E2000F0F6FB7B6823F400637B60CF
S1134630114A7B68C2F8103200BF0F4BD3F8103216
S113464003F00053B3F1005FF7D17A6842F2080334
S113465013437B60084A7B68C2F810327B6823F0FE
S113466080437B60044A7B68C2F8103200E000BFDC
S11346700837BD4680BD00BF0040C8401000004060
S113468000CA9A3B0008200080B582B000AF034600
S11346900A46FB711346BB7197F90730052B57D8AF
S11346A001A252F823F000BFC1460000E546000015
S11346B0F146000015470000394700004547000057
S11346C0BB79002B05D0264BD3F8003243F40033DA
S11346D004E0234BD3F8003223F40033204AC2F819
S11346E0003238E0BB791946012003F0E7F932E0E3
S11346F0BB79002B05D01A4BD3F8403243F48033F6
S113470004E0174BD3F8403223F48033144AC2F840
S1134710403220E0BB79002B05D0114BD3F8103286
S113472043F4803304E00E4BD3F8103223F4803387
S11347300B4AC2F810320EE0BB791946022003F08E
S1134740BDF908E0BB791946032003F0B7F902E08C
S11347500448FEF78FFF00BF0837BD4680BD00BF89
S11347600040C840C489000080B582B000AF034651
S11347703960FB71FB790121184603F0CFF9064932
S1134780386800F047FBFB790021184603F0C6F9AE
S113479000BF0837BD4680BD00CA9A3B80B584B0CF
S11347A002AF3A601A460346FB710B46BB711346CF
S11347B07B71FB79012B04D0FB790021184603F0AF
S11347C05FF97B69002B0ED07B695B88C3F30E0213
S11347D07B691B881B04134343F40042FB791021BB
S11347E0184603F0FAF8FB793A693021184603F0C9
S11347F0F4F8FB793A682021184603F0EEF8BA7908
S1134800F879002300937F23002103F00CF9FB794E
S1134810012B08D07A79F879192300934FF060635B
S1134820002103F000F9FB790121184603F05EF939
S11348300649642000F0EEFAFB790121184603F0E2
S11348401FF900BF0837BD4680BD00BF00CA9A3BB0
S113485080B483B000AF0346FB71FB7983F001039E
S1134860DBB2002B08D00B4BD3F80033094A23F4F6
S11348708043C2F8003307E0064BD3F80033054AFF
S113488043F48043C2F8003300BF0C37BD465DF8E3
S1134890047B70470040C84080B483B000AF034637
S11348A0FB71FB7983F00103DBB2002B08D00B4BC7
S11348B0D3F80033094A23F40053C2F8003307E065
S11348C0064BD3F80033054A43F40053C2F80033CF
S11348D000BF0C37BD465DF8047B70470040C840FC
S11348E080B483B000AF0346FB71FB7983F001030E
S11348F0DBB2002B08D00B4BD3F85033094A23F416
S11349008043C2F8503307E0064BD3F85033054ACE
S113491043F48043C2F8503300BF0C37BD465DF802
S1134920047B70470040C84080B483B000AF0346A6
S1134930FB71FB7983F00103DBB2002B08D00B4B36
S1134940D3F85033094A23F40053C2F8503307E034
S1134950064BD3F85033054A43F40053C2F850339E
S113496000BF0C37BD465DF8047B70470040C8406B
S113497090B587B002AF78600023FB73304800F035
S11349803DFF2F4BD3F85033BB60BB6803F02023AB
S1134990B3F1202F01D10123FB730121032003F084
S11349A08DF8FB7B002B11D00020FFF7BDFF012009
S11349B0FFF796FF0021032003F0E0F80021032015
S11349C003F05EF80021032003F090F80120FFF7C4
S11349D0ABFF7B6819787B6858687B685C787B6878
S11349E09A687B681B7C002B06D07B68DB68002BF5
S11349F002D07B68DB6800E0002301930092234629
S1134A0002460320FFF7CAFEE1210320FFF7ACFEB4
S1134A100B4BD3F85033BB60BB6803F00053002B3F
S1134A20F6D00121032003F0A9F80020FFF758FF76
S1134A300021032003F042F800BF1437BD4690BDA7
S1134A400040C84080B483B000AF0346FB71FB79DB
S1134A5083F00103DBB2002B08D00B4BD3F8C03238
S1134A60094A23F48043C2F8C03207E0064BD3F866
S1134A70C032054A43F48043C2F8C03200BF0C3749
S1134A80BD465DF8047B70470040C84080B483B0E5
S1134A9000AF0346FB71FB7983F00103DBB2002B0B
S1134AA008D00B4BD3F8C032094A23F00073C2F884
S1134AB0C03207E0064BD3F8C032054A43F0007316
S1134AC0C2F8C03200BF0C37BD465DF8047B7047A6
S1134AD00040C84080B483B000AF0346FB71FB794B
S1134AE083F00103DBB2002B08D00B4BD3F8C032A8
S1134AF0094A23F08063C2F8C03207E0064BD3F8BA
S1134B00C032054A43F08063C2F8C03200BF0C379C
S1134B10BD465DF8047B70470040C84080B483B054
S1134B2000AF0346FB71FB7983F00103DBB2002B7A
S1134B3008D00B4BD3F8C032094A23F40053C2F80F
S1134B40C03207E0064BD3F8C032054A43F40053A1
S1134B50C2F8C03200BF0C37BD465DF8047B704715
S1134B600040C84080B586B000AF0346FB71002307
S1134B707B6197F90730052B3FD801A252F823F047
S1134B80994B0000D54B0000DB4B0000E14B0000CB
S1134B90E74B0000F14B00001F4BD3F80032DBB2AF
S1134BA03B611D4BD3F80032DB0B03F00303FB60C6
S1134BB0FB680133012202FA03F3FB60FB685B002C
S1134BC0164AB2FBF3F37B617B693A6902FB03F398
S1134BD07B6115E0124B7B6112E0124B7B610FE0AD
S1134BE0114B7B610CE00420FEF7CAFC786107E0FE
S1134BF00520FEF7C5FC786102E00C48FEF73AFD9B
S1134C007B69002B02D10A48FEF734FD7B69184604
S1134C101837BD4680BD00BF0040C84000366E0155
S1134C2000CA9A3B00A4781F00389C1C208A00000C
S1134C303C8A000080B584B000AF0346FB710023BA
S1134C40FB60FB791E2B00F2B38001A252F823F023
S1134C50CD4C0000D34C0000D94C0000DF4C0000C8
S1134C60E54C0000E54C0000EB4C0000EB4C000070
S1134C70F54C0000F54C0000FF4C00000B4D00000B
S1134C80174D0000234D00002F4D00002F4D000054
S1134C90B14D0000394D0000454D0000514D00005C
S1134CA05D4D0000694D0000694D0000734D00002A
S1134CB0814D0000954D0000954D00009F4D000072
S1134CC09F4D0000A94D0000A94D00003F4BFB6023
S1134CD071E03F4BFB606EE03E4BFB606BE03E4B94
S1134CE0FB6068E03B4BFB6065E00020FFF73AFFA8
S1134CF0F86060E00220FFF735FFF8605BE0002118
S1134D000220FFF7DFFBF86055E001210220FFF7E6
S1134D10D9FBF8604FE002210220FFF7D3FBF860D3
S1134D2049E003210220FFF7CDFBF86043E00320B4
S1134D30FFF718FFF8603EE000210320FFF7C2FBF5
S1134D40F86038E001210320FFF7BCFBF86032E093
S1134D5002210320FFF7B6FBF8602CE003210320B7
S1134D60FFF7B0FBF86026E00120FFF7FBFEF860D8
S1134D7021E00120FFF7F6FE03465B08FB601AE022
S1134D800120FFF7EFFE0346144AA2FB03239B080E
S1134D90FB6010E00420FFF7E5FEF8600BE005205F
S1134DA0FFF7E0FEF86006E002F062FEF86002E061
S1134DB00B48FEF75FFCFB68002B02D10948FEF7A5
S1134DC059FCFB6818461037BD4680BD0024F4002A
S1134DD0006CDC0200366E010084D717CDCCCCCC3D
S1134DE0548A0000708A000080B400AF084B1B6D29
S1134DF0074A23F001031365054B1B6E044A43F075
S1134E000103136600BFBD465DF8047B704700BF15
S1134E100040C8402DE9B04F84B000AF78603960DD
S1134E207968002902D11F48FEF724FC7968002024
S1134E3088468146396800200A46034602FB09F089
S1134E4008FB03F10144A8FB02454B191D46164A11
S1134E504FF000032046294603F0A6FA02460B460B
S1134E60C7E90223D7E90223012B02D30F48FEF737
S1134E7001FCD7E902014FF003024FF0000303F0F5
S1134E8093FA02460B4612EB020A43EB030BC7E903
S1134E9002ABBB68184602F0E9FE00BF1037BD46FE
S1134EA0BDE8B08F888A000040420F00B08A00003D
S1134EB080B483B000AF78607B689A68114B13406C
S1134EC07A6893607B68DB6843F008027B68DA6089
S1134ED07B681B6923F4606343F420627B681A6176
S1134EE07B685B6923F4C0127B685A617B685B69E9
S1134EF043F480227B685A6100BF0C37BD465DF8DD
S1134F00047B7047FEFFFFFB80B483B000AF034611
S1134F100A46FB711346BB71BB791946114AFB79EA
S1134F2003F540735B0113441B684B4003F001031A
S1134F30002B10D0BB791A460A49FB7902F0010212
S1134F4003F540735B010B441A60BFF34F8F00BF3E
S1134F50BFF36F8F00BF00BF0C37BD465DF8047B05
S1134F60704700BF0000CC4080B584B000AF7860CB
S1134F700023FB6009E00D4AFB6852F823307A688D
S1134F809A4206D0FB680133FB60FB680F2BF2D911
S1134F9000E000BFFB680F2B02D90548FEF76AFB4F
S1134FA0FB6818461037BD4680BD00BFD88A000094
S1134FB0288B000080B586B000AFF860B9607A60D5
S1134FC0F868FFF7D1FF78617B690D2B0CD8204A74
S1134FD07B6913441B788A2B06D01D4A7B691344D2
S1134FE01B78184602F052FEFB685A690121BB681F
S1134FF001FA03F3DB431A40FB685A617B681B78B0
S1135000002B0AD1FB685A680121BB6801FA03F33B
S1135010DB431A40FB685A600FE07B685B781A46F2
S1135020B968F86800F016F8FB685A680121BB6893
S113503001FA03F31A43FB685A607B689B781A46AB
S1135040B968F86802F030FE00BF1837BD4680BD6D
S1135050188B000080B584B000AFF860B9601346C7
S1135060FB71BB681F2B02D90B48FEF703FBFB79CE
S1135070002B06D10122BB689A40FB68C3F8882044
S113508005E00122BB689A40FB68C3F8842000BF96
S11350901037BD4680BD00BF5C8B000080B487B074
S11350A000AFF860B9601346FB71BB683B61FB68F5
S11350B0DA690121BB6801FA03F3DB431A40FB6898
S11350C0DA61BB680F2B03D8FB680C337B6105E006
S11350D0FB6810337B613B69103B3B61FB79013B0F
S11350E0042B52D801A252F823F000BF0151000052
S11350F0195100003D51000061510000775100003A
S11351007B691A683B695B00032101FA03F3DB4303
S11351101A407B691A6039E07B691A683B695B0055
S1135120032101FA03F3DB431A403B695B000121CD
S113513001FA03F31A437B691A6027E07B691A6852
S11351403B695B00032101FA03F3DB431A403B692B
S11351505B00022101FA03F31A437B691A6015E02C
S11351607B691A683B695B00032101FA03F31A4364
S11351707B691A600AE0FB68DA690121BB6801FAFD
S113518003F31A43FB68DA6100E000BF00BF1C3779
S1135190BD465DF8047B704780B483B000AF03461E
S11351A00A46FB711346BB71BB791946114AFB7958
S11351B003F540735B0113441B684B4003F0010388
S11351C0002B10D0BB791A460A49FB7902F0010280
S11351D003F540735B010B441A60BFF34F8F00BFAC
S11351E0BFF36F8F00BF00BF0C37BD465DF8047B73
S11351F0704700BF0000CC4080B584B000AF786039
S11352000023FB6009E00D4AFB6852F823307A68FA
S11352109A4206D0FB680133FB60FB680C2BF2D981
S113522000E000BFFB680C2B02D90548FEF722FA08
S1135230FB6818461037BD4680BD00BF788B000060
S1135240BC8B000080B58CB000AFF860B9607A60A8
S1135250BB68002B02D17048FEF70CFABB681B68D0
S1135260002B02D16D48FEF705FABB681B7A042BAC
S113527002D96B48FEF7FEF9BB685B7A042B02D9AE
S11352806848FEF7F7F90023FB62BB681B68FB6103
S1135290002387F823300023FB84042387F822307B
S11352A041E07A6813469B0013445B001946BB68CF
S11352B01B6897F8222002FB03F3B1FBF3F30533D9
S11352C0594AA2FB0323DB08BB84BB8C002B01D10E
S11352D00123BB8497F82230BA8C02FB03F37A686B
S11352E0B2FBF3F37B61BB681B687A699A4204D909
S11352F0BB681B687A69D31A03E0BB681A687B69C8
S1135300D31A3B613A69FB699A4207D83B69FB614E
S113531097F8223087F82330BB8CFB8497F822302F
S1135320013387F8223097F82230202BB9D9BB6893
S11353301B683E4AA2FB03235A0913465B0013442D
S1135340FA699A4203D940F22153FB62FAE0F86801
S1135350FFF752FFB861364ABB6913441B781846FD
S113536002F0B3FCF86802F0BEFCFB681B69BB6288
S113537097F82330032B07D997F82330072B03D84A
S1135380BB6A43F40033BB62BB6A23F0F853BB62CD
S113539097F82330013B1B0603F0F853BA6A134312
S11353A0BB62BA6A234B1340BB62FB8CC3F30C028F
S11353B0BB6A1A43FB681A61FB681B6923F000523D
S11353C0FB681A61FB689A691B4B1340BB62BB689C
S11353D01B791A46BB68DB7B1B0203F4E0631A43A8
S11353E0BB689B7B9B0003F004031343BA6A13431B
S11353F0BB62BB685B79012B20D1BB681B79002B96
S113540004D0BB6A23F40063BB621FE0BB6A43F4AD
S11354100063BB621AE000BFF48B0000188C00002C
S1135420488C0000A48C0000CDCCCCCC1F85EB5163
S1135430AC8B000000E0FFFFE8F8FFFFBB681B79BE
S1135440002B03D0BB6A43F01003BB62FB68BA6A4B
S11354509A61FB681B6923F40053BB62BB68DB7968
S11354605B0303F40052BB6A1A43FB681A61BB680E
S11354705B7A1B04BA68127A1A43FB68DA62FB6827
S11354809B6A43F08802FB689A62FB689B6A43F458
S11354904042FB689A622E4BBB62BB6A43F00043F6
S11354A0BB62BB6A43F44043BB62FB685A6ABB6895
S11354B05B7B1B0103F01001BB681B7B5B0103F0EA
S11354C020030B431A43FB685A62BB689B7A002B88
S11354D005D0FB685B6A43F00802FB685A62BB684C
S11354E0DB7A002B05D0FB685B6A43F00102FB68A2
S11354F05A62BB689B79002B04D0BB6A43F000530B
S1135500BB6203E0BB6A23F00053BB62FB685A69C9
S1135510BB6A1A43FB685A61FB689B69BB62BB6840
S11355201B7C002B03D0BB6A43F40023BB62BB6823
S11355305B7C002B03D0BB6A43F48023BB62FB6813
S1135540BA6A9A61FB6A18463037BD4680BD00BF0F
S113555000001F4080B582B000AF78607B68002BEC
S113556002D11D48FEF786F814220021786802F063
S1135570EBFD7B684FF4E1321A607B6800221A71FC
S11355807B6800225A717B6800229A717B68002232
S1135590DA717B6800221A727B6800225A727B6877
S11355A000229A727B680022DA727B6800225A73A6
S11355B07B6800221A737B6800229A737B6800223E
S11355C0DA737B6800221A747B6800225A7400BF65
S11355D00837BD4680BD00BF008D000080B586B091
S11355E000AFF860B9607A60BB68002B02D1144840
S11355F0FEF740F8BB687B617B683B6111E000BF4C
S1135600FB685B6903F40003002BF9D07B691B780A
S11356101A46FB68DA617B6901337B613B69013BB4
S11356203B613B69002BEAD100BFFB685B6903F473
S11356308003002BF9D0002318461837BD4680BDDF
S1135640248D000080B500AF054B1B68054A5268E5
S1135650114605489847BFF34F8F00BF00BF80BD78
S11356601C950000E894000000C0074080B500AF1E
S1135670054B1B68054A9268114605489847BFF3D5
S11356804F8F00BF00BF80BD1C950000E894000050
S11356900000084080B500AF054B1B68054AD2687E
S11356A0114605489847BFF34F8F00BF00BF80BD28
S11356B01C950000E89400000040084080B500AF4D
S11356C0054B1B68054A1269114605489847BFF304
S11356D04F8F00BF00BF80BD1C950000E894000000
S11356E00080084080B500AF054B1B68054A52692D
S11356F0114605489847BFF34F8F00BF00BF80BDD8
S11357001C950000E894000000C0084080B500AF7C
S1135710054B1B68054A9269114605489847BFF333
S11357204F8F00BF00BF80BD1C950000E8940000AF
S11357300000094080B500AF054B1B68054AD269DB
S1135740114605489847BFF34F8F00BF00BF80BD87
S11357501C950000E89400000040094080B500AFAB
S1135760054B1B68054A126A114605489847BFF362
S11357704F8F00BF00BF80BD1C950000E89400005F
S11357800080094080B500AF054B1B68054A526A8A
S1135790114605489847BFF34F8F00BF00BF80BD37
S11357A01C950000E894000000C0094080B500AFDB
S11357B0054B1B68054A926A114605489847BFF392
S11357C04F8F00BF00BF80BD1C950000E89400000F
S11357D000000A4080B500AF054B1B68054AD26A39
S11357E0114605489847BFF34F8F00BF00BF80BDE7
S11357F01C950000E89400000040C24080B584B0CD
S113580000AF78600021002002F0F9F8F860FB682E
S113581040F20512934211D040F2051200210020FB
S113582002F0DBF807490120FFF7F4FA7B68D3F8AC
S1135830703543F010027B68C3F8702500BF103741
S1135840BD4680BD00CA9A3B80B582B000AF786087
S11358500B46FB70FB7883F00103DBB2002B22D0F4
S11358607B68D3F8103523F005027B68C3F8102554
S113587026494FF47A70FFF7CDFA7B68D3F81035D8
S113588023F020027B68C3F8102520494FF47A7076
S1135890FFF7C0FA7B68D3F8103523F400227B6845
S11358A0C3F810252EE07B68D3F8103523F00102ED
S11358B07B68C3F8102515494FF47A70FFF7AAFAEC
S11358C07B68D3F8103543F400227B68C3F81025B5
S11358D00E494FF47A70FFF79DFA7B68D3F81035C0
S11358E043F020027B68C3F8102508494FF47A700E
S11358F0FFF790FA7B68D3F8103543F004027B6815
S1135900C3F8102500BF0837BD4680BD00CA9A3BC6
S113591080B582B000AF78600B46FB70FB78002B3B
S113592022D07B68D3F8303543F400327B68C3F867
S1135930302520494FF47A70FFF76CFA7B68D3F86E
S1135940303543F480227B68C3F8302519494FF47D
S11359507A70FFF75FFA7B68D3F8303523F00402DE
S11359607B68C3F8302521E07B68D3F8303543F0F9
S113597004027B68C3F830250E494FF47A70FFF7B0
S113598049FA7B68D3F8303523F480227B68C3F866
S1135990302508494FF47A70FFF73CFA7B68D3F856
S11359A0303523F400327B68C3F8302500BF083754
S11359B0BD4680BD00CA9A3B80B485B000AF786014
S11359C00B46FB701346BB70BB78002B00F0818044
S11359D0FB78022B57D0022B00F38480002B02D0DB
S11359E0012B2AD07EE07B68D3F85035FB60FB683E
S11359F023F00103FB60FB6843F00203FB607B6858
S1135A00FA68C3F850257B68D3F86035FB60FB68FF
S1135A1023F4E053FB60FA68364B1343FB607B6866
S1135A20FA68C3F8602500BF7B68D3F8603503F0DB
S1135A308063B3F1806FF7D155E07B68D3F85035BC
S1135A40FB60FB6823F00303FB607B68FA68C3F820
S1135A5050257B68D3F86035FB60FB6823F4E05382
S1135A60FB60FA68244B1343FB607B68FA68C3F855
S1135A70602500BF7B68D3F8603503F08063B3F121
S1135A80806FF7D12FE07B68D3F85035FB60FB685B
S1135A9023F00303FB607B68FA68C3F850257B6836
S1135AA0D3F86035FB60FB6823F4E053FB60FA68CD
S1135AB0124B1343FB607B68FA68C3F8602500BF90
S1135AC07B68D3F8603503F08063B3F1806FF7D15E
S1135AD009E07B68D3F86025094B13407A68C2F863
S1135AE0603500E000BF00BF1437BD465DF8047B9D
S1135AF0704700BF0004000100080001001000010D
S1135B00FFE3FFFE80B584B000AF7D4BD3F888304F
S1135B107B4A43F47003C2F88830794B794A9A601F
S1135B20794B1B889BB203F00403002B07D0764B00
S1135B301B889BB2744A23F004039BB21380734BFB
S1135B401B889BB203F00403002B07D06F4B1B8808
S1135B509BB26E4A23F004039BB213806C4B1B6808
S1135B6003F40053002B03D0694B6A4A5A6007E0E0
S1135B70674B4CF220525A60654B4DF628125A601E
S1135B80634B4FF6FF729A60614B1B6823F0A003CE
S1135B905F4A43F0200313605F4B1B6803F4005318
S1135BA0002B03D05C4B5B4A5A6007E05A4B4CF223
S1135BB020525A60584B4DF628125A60564B4FF6F5
S1135BC0FF729A60544B1B6823F0A003524A43F0BF
S1135BD020031360514B1B6803F00103002B05D015
S1135BE04E4B1B684D4A23F001031360444B5B6921
S1135BF003F40033B3F5003F22D0414B5B6903F457
S1135C000033002B1BD1BFF34F8F00BFBFF36F8F47
S1135C1000BF3B4B0022C3F85022BFF34F8F00BF9D
S1135C20BFF36F8F00BF364B5B69354A43F40033D3
S1135C305361BFF34F8F00BFBFF36F8F00E000BF0E
S1135C402F4B5B6903F48033B3F5803F3FD02C4B7B
S1135C505B6903F48033002B38D1294B0022C3F84D
S1135C608420BFF34F8F00BF254BD3F88030FB60F7
S1135C70FB685B0BC3F30E03BB60FB68DB08C3F379
S1135C8009037B60BB685A0143F6E07313407A68EA
S1135C9092071B491343C1F860327B685A1E7A602D
S1135CA0002BEFD1BB685A1EBA60002BE5D1BFF3BD
S1135CB04F8F00BF124B5B69114A43F48033536129
S1135CC0BFF34F8F00BFBFF36F8F00E000BF144BD3
S1135CD01B6F134A23F400531367094B5B69084A8B
S1135CE043F010035361BFF34F8F00BFBFF36F8FB7
S1135CF000BF02F015F800BF1037BD4680BD00BFDD
S1135D0000ED00E0003000000000034000400340CC
S1135D100080034020C528D90000C14010E000E005
S1135D2000400E4080B58AB000AF7860396000232F
S1135D30FB847B68002B02D13548FDF79BFC3B6854
S1135D40002B02D13348FDF795FC3B689B7B0C2B61
S1135D5002D93148FDF78EFC3B689B7B1A462F4BDA
S1135D6053F82230002B02D12D48FDF783FC07F1B4
S1135D7008031846FFF7EEFB3B685B68BB603B68B3
S1135D801B7A3B733B685B7AFB733B689B7A002B03
S1135D9014BF01230023DBB27B763B68DB7A002B44
S1135DA014BF01230023DBB23B763B681B7B002B33
S1135DB014BF01230023DBB2BB743B685B7B002B65
S1135DC014BF01230023DBB2FB743B689B7B1A46A0
S1135DD0124B53F822003B681A6807F1080319466E
S1135DE0FFF730FA38623B6A002B05D0386A01F0BD
S1135DF09EFF0346FB8405E07B68FB613B689A7B5E
S1135E00FB691A70FB8C18462837BD4680BD00BF5D
S1135E10788D00009C8D0000C08D0000448D000032
S1135E20248E000080B586B000AFF860B9607A6057
S1135E30FB68002B02D11048FDF71CFCBB68002B4B
S1135E4002D10E48FDF716FC7B68002B02D10C48EA
S1135E50FDF710FCFB687B617B691B781A46094BD4
S1135E6053F822307A68B9681846FFF7B7FB002365
S1135E7018461837BD4680BD688E00008C8E000021
S1135E80AC8E0000448D000080B483B000AF0346A4
S1135E90FB71074AFB79DB0113441B681B0A03F0FF
S1135EA0070318460C37BD465DF8047B704700BFF6
S1135EB00000CC4080B483B000AF0346FB71064AB7
S1135EC0FB79DB0113441B68DBB2013318460C3742
S1135ED0BD465DF8047B70470000CC4090B585B0AA
S1135EE000AF0346FB71FB791846FFF7CDFFF8605E
S1135EF0FB790E4ADB001A44FB6813441B781846EE
S1135F00FEF798FE0446FB791846FFF7D3FF0346D5
S1135F10B4FBF3F3BB60BB68002B02D10448FDF76C
S1135F20A9FBBB6818461437BD4690BDD08E00004F
S1135F304891000080B483B000AF0346FB71074A68
S1135F40FB79DB0113441B681B0A03F007031846A3
S1135F500C37BD465DF8047B704700BF0000CC40A1
S1135F6080B483B000AF0346FB71064AFB79DB01C2
S1135F7013441B68DBB2013318460C37BD465DF889
S1135F80047B70470000CC4080B582B000AF03466C
S1135F903960FB713B68002B02D11448FDF76AFBA2
S1135FA03B685B781B0203F4E0623B689B78013B2F
S1135FB0DBB21A433B681B78002B05D03B681B7887
S1135FC01B0603F0807300E000230948F9791A43A3
S1135FD0CB0103441A60BFF34F8F00BFBFF36F8F31
S1135FE000BF00BF0837BD4680BD00BF2494000039
S1135FF00000CC4090B585B000AF0346FB71FB793F
S11360001846FFF797FFF860FB790E4ADB001A4445
S1136010FB6813441B781846FEF70CFE0446FB7914
S11360201846FFF79DFF0346B4FBF3F3BB60BB6860
S1136030002B02D10448FDF71DFBBB68184614373A
S1136040BD4690BDAC9100004891000080B483B07F
S113605000AF0346FB71FB79002B06D0094B1B698B
S1136060084A43F00203136105E0064B1B69054A25
S113607023F00203136100BF0C37BD465DF8047BB7
S1136080704700BF0040C84080B483B000AF0346EF
S1136090FB71FB79002B06D0094B1B69084A43F0BE
S11360A08073136105E0064B1B69054A23F0807376
S11360B0136100BF0C37BD465DF8047B704700BF19
S11360C00040C84080B483B000AF0346FB71FB7945
S11360D0002B06D0094B1B6D084A43F002031365DD
S11360E005E0064B1B6D054A23F00203136500BF50
S11360F00C37BD465DF8047B704700BF0040C840C4
S113610080B485B000AF78600B46FB701346BB705B
S11361107B68DA68094B1340FB60FB789B0203F44D
S11361208062FB681A43BB781A437B68DA6000BF5D
S11361301437BD465DF8047B704700BF00FBFFFFCA
S113614080B582B000AF3B1D00210A461A800A4682
S11361509A701348FEF7ACFE124BD3F80039124A7A
S113616093420AD10F4BD3F81039DBB20B2B04D175
S113617016210B4801F090FF03E01521084801F0B7
S11361808BFF084BD3F870381B0903F00103012B74
S11361900ED0012200210548FFF70EFC0DE000BFE0
S11361A00080CA4000C0CA406959AC570040C8408A
S11361B000220021F648FFF7FFFB0121F448FFF716
S11361C043FB0121F248FFF7A3FB022001F028FD65
S11361D0EF4BD3F8C030EE4A43F00203C2F8C030AC
S11361E0FEF702FE0120FFF76DFF0120FFF72EFFEF
S11361F00120FFF749FFE64B1B6AE54A43F014030D
S1136200136200BFE24B1B6A03F08043B3F1804F7B
S1136210F8D100237B710123BB713B1D194600207B
S1136220FFF7B2FE00237B710123BB713B1D1946AE
S11362300820FFF7A9FED748FDF734FF012101200C
S1136240FEF722FA01F0CCFCD348FDF7D3FF1B2262
S113625000210220FEF7B0F8102201210220FEF7EF
S1136260ABF8182202210220FEF7A6F8202203210F
S11362700220FEF7A1F8FEF78DF90D22002103207C
S1136280FEF79AF8112201210320FEF795F8202247
S113629002210320FEF790F8162203210320FEF7C3
S11362A08BF801210420FEF7EFF901F07FFCBB48D5
S11362B0FEF75EFB04237B710123BB713B1D194672
S11362C00020FFF761FE04237B710223BB713B1D99
S11362D019460220FFF758FE05237B710323BB7187
S11362E03B1D19460320FFF74FFE06237B71032352
S11362F0BB713B1D19460420FFF746FE00237B714A
S11363000123BB713B1D19460520FFF73DFE002309
S11363107B710123BB713B1D19460620FFF734FE38
S113632000237B71F023BB713B1D19460820FFF746
S11363302BFE00237B710123BB713B1D19460920F1
S1136340FFF722FE00237B710123BB713B1D19461D
S11363500A20FFF719FE00237B710123BB713B1D4B
S113636019460B20FFF710FE00237B710123BB713C
S11363703B1D19460C20FFF707FE00237B71012308
S1136380BB713B1D19460D20FFF7FEFD00237B71F9
S11363900123BB713B1D19460E20FFF7F5FD0023B9
S11363A07B710123BB713B1D19460F20FFF7ECFDE8
S11363B000237B710123BB713B1D19461020FFF79D
S11363C0E3FD00237B710123BB713B1D19461120A2
S11363D0FFF7DAFD00237B710123BB713B1D1946D6
S11363E01220FFF7D1FD00237B710123BB713B1DFC
S11363F019461320FFF7C8FD00237B710123BB71ED
S11364003B1D19461420FFF7BFFD00237B710123B8
S1136410BB713B1D19461520FFF7B6FD00237B71A8
S11364200123BB713B1D19461620FFF7ADFD002368
S11364307B710123BB713B1D19461720FFF7A4FD97
S113644000237B710123BB713B1D19461820FFF704
S11364509BFD06237B711623BB713B1D1946192036
S1136460FFF792FD06237B711623BB713B1D194672
S11364701A20FFF789FD00237B710123BB713B1DAB
S113648019461B20FFF780FD00237B710123BB719C
S11364903B1D19461C20FFF777FD00237B71012368
S11364A0BB713B1D19461D20FFF76EFD00237B7158
S11364B00123BB713B1D19461E20FFF765FD002318
S11364C07B710123BB713B1D19461F20FFF75CFD47
S11364D000237B710123BB713B1D19462020FFF76C
S11364E053FD00237B710123BB713B1D1946212001
S11364F0FFF74AFD00237B710123BB713B1D194645
S11365002220FFF741FD00237B710123BB713B1D5A
S113651019462320FFF738FD00237B710123BB714B
S11365203B1D19462420FFF72FFD00237B71012317
S1136530BB713B1D19462520FFF726FD00237B7107
S11365400123BB713B1D19462620FFF71DFD0023C7
S11365507B710123BB713B1D19462720FFF714FDF6
S113656000237B710123BB713B1D19462820FFF7D3
S11365700BFD00237B710123BB713B1D19462920B0
S1136580FFF702FD00237B710123BB7108E000BF0C
S11365900040C8408C94000094940000A094000033
S11365A03B1D19462A20FFF7EFFC00237B710123D2
S11365B0BB713B1D19462B20FFF7E6FC00237B71C2
S11365C00123BB713B1D19462C20FFF7DDFC002382
S11365D07B710123BB713B1D19462D20FFF7D4FCB1
S11365E000237B710123BB713B1D19462E20FFF74D
S11365F0CBFC00237B710123BB713B1D19462F206B
S1136600FFF7C2FC00237B710123BB713B1D1946BC
S11366103020FFF7B9FC00237B710123BB713B1DC4
S113662019463120FFF7B0FC00237B710123BB71B5
S11366303B1D19463220FFF7A7FC00237B71012381
S1136640BB713B1D19463320FFF79EFC00237B7171
S11366500123BB713B1D19463420FFF795FC002331
S11366607B710123BB713B1D19463520FFF78CFC60
S113667000237B710123BB713B1D19463620FFF7B4
S113668083FC00237B710123BB713B1D194637201A
S1136690FFF77AFC00237B710123BB713B1D194674
S11366A03820FFF771FC00237B710123BB713B1D74
S11366B019463920FFF768FC00237B710123BB7165
S11366C03B1D19463A20FFF75FFC00237B71012331
S11366D0BB713B1D19463B20FFF756FC00237B7121
S11366E00123BB713B1D19463C20FFF74DFC0023E1
S11366F07B710123BB713B1D19463D20FFF744FC10
S113670000237B710123BB713B1D19463E20FFF71B
S11367103BFC00237B710123BB713B1D19463F20C9
S1136720FFF732FC00237B710123BB713B1D19462B
S11367304020FFF729FC00237B710123BB713B1D23
S113674019464120FFF720FC00237B710123BB7114
S11367503B1D19464220FFF717FC00237B710123E0
S1136760BB713B1D19464320FFF70EFC07237B71C9
S11367700223BB713B1D19464420FFF705FC00238F
S11367807B710123BB713B1D19464520FFF7FCFBC0
S113679000237B710123BB713B1D19464620FFF783
S11367A0F3FB00237B710123BB713B1D194647207A
S11367B0FFF7EAFB00237B710123BB713B1D1946E4
S11367C04820FFF7E1FB00237B710123BB713B1DD4
S11367D019464920FFF7D8FB00237B710123BB71C5
S11367E03B1D19464A20FFF7CFFB00237B71012391
S11367F0BB713B1D19464B20FFF7C6FB00237B7181
S11368000123BB713B1D19464C20FFF7BDFB002340
S11368107B710123BB713B1D19464D20FFF7B4FB6F
S113682000237B710123BB713B1D19464E20FFF7EA
S1136830ABFB00220021354801F0D8FB03220321E1
S1136840324801F0D3FB00220621304801F0CEFB90
S1136850002208212D4801F0C9FB00220A212B48FF
S113686001F0C4FB002200212848FFF749FC274B14
S11368701B69264A23F002031361244B5B6923F04E
S11368800503224A43F004035361204B5B691F4A0A
S113689023F0020353611D4B9B691C4A23F002033E
S11368A093611A4B9B69194A23F001039361174BB7
S11368B09B6D164A23F001039365144BDB6D134A59
S11368C023F00103D365114B1B6E104A23F001031F
S11368D013660E4B5B6E0D4A23F0010353660B4B9C
S11368E09B6E0A4A23F001039366084BDB6E074A4A
S11368F023F00103D3660020FFF77CFB0346044A20
S1136900136000BF0837BD4680BD00BF00400E4085
S1136910BC94000080B483B000AF03460A46FB7108
S11369201346BB71BB791946114AFB7903F54073D1
S11369305B0113441B684B4003F00103002B10D090
S1136940BB791A460A49FB7902F0010203F5407348
S11369505B010B441A60BFF34F8F00BFBFF36F8F0F
S113696000BF00BF0C37BD465DF8047B704700BF15
S11369700000CC4080B584B002AF312001F0B2FBFE
S113698001233B7100237B710023BB713B1D1A461D
S113699003210848FEF70EFB00230193064B0093E6
S11369A0002300220A21054801F0AAFB00BF083792
S11369B0BD4680BD0040C64060830E401C810E4031
S11369C010B5174A0020174901F03BFC4FF48073BF
S11369D04FF480620021124801F0D0FB124A13499F
S11369E0012001F02EFC4FF480734FF480620021EB
S11369F00D4801F0C3FB0E4B1B68022B0EDD0D4A44
S1136A0002200A4901F01DFC4FF480734FF48062A8
S1136A1000210848BDE8104001F0B0BB10BD00BF24
S1136A2024950000B894000060950000BA9400001A
S1136A30B49400009C9500002DE9F041D56880468F
S1136A400E461446EB02576905D545F01005384645
S1136A5001F081FDA061124B2B408BB1A169384636
S1136A6001F082FD002806DAE3684FF0FF3043F0BE
S1136A708003E36011E025F4003525F01005E5609E
S1136A8032464146384601F075FD20F00041761A41
S1136A90A1690E44A6610028E6D1BDE8F08100BFDB
S1136AA010000200F8B5044638B90B4B05460B4EEE
S1136AB01F68A74205DC2846F8BDBDE8F84001F090
S1136AC053BC3046013401F04FFC002806F13C066B
S1136AD018BF4FF0FF35ECE7B49400002495000094
S1136AE02DE9F843C66804463B4B0D4690463340B7
S1136AF01BB902273846BDE8F883D0F814904846FD
S1136B0001F02CFD07460028F3D1B8F1010F2CD079
S1136B10B8F1020F2ED0B8F1000FEAD1002DE8DB56
S1136B20B00404D52368E26A9A4238BFE362A169DB
S1136B30A9420EDC2368E26A934238BF13462269F5
S1136B405818801AA84204DB206B01EB000CAC45FA
S1136B5031DC002346F02006A562C4E9013326F4A3
S1136B60032626F04006E660C4E7204600F036F827
S1136B700544D3E7484601F0EEFCB0F1000CE268AE
S1136B8004DA42F080020127E260B3E72168A369D6
S1136B90E06A81422CBF5B181B1821699206A3EBA3
S1136BA0010303D5A26A9342B8BF13466345ACBF41
S1136BB0ED186544B2E76D1AB10744BF281AA06006
S1136BC0F10726F0200644BF9B1AEB1A154448BF70
S1136BD063602560C3E700BF03001000C3689A0721
S1136BE005D10E4B21224FF0FF301A60704703F09D
S1136BF020021B0309D512B1806A0138704703686B
S1136C00826900691344181AF7E70AB1806A704769
S1136C100368826900691344181A704720950000BC
S1136C2080B586B000AFF860B9603B601346FB7175
S1136C3000237B6100237B611CE0BB681B6801337C
S1136C407F2B08D9BB681B681946F868FCF71EFD42
S1136C50BB6800221A60BB681B681A46FB681344B1
S1136C60FA791A70BB681B685A1CBB681A607B6986
S1136C7001337B617A693B689A42DEDB00BF00BF67
S1136C801837BD4680BD80B485B000AF78603960E8
S1136C900023FB600023FB7220E07B681B685A1C06
S1136CA07B681A607B681B681B78BB72BB7A2F2BCE
S1136CB00DD9BB7A392B0AD8FA6813469B001344C2
S1136CC05B001A46BB7A1344303BFB6006E07B68EA
S1136CD01B685A1E7B681A600123FB72FB7A002B27
S1136CE0DBD0FB6818461437BD465DF8047B70475B
S1136CF080B489B000AFF860B9607A60FB681B6843
S1136D00FB610623BB610023FB75FB690133FB6157
S1136D10FB691B782E2B24D10023BB610023FB7558
S1136D201BE0FB690133FB61FB691B78BB75BB7D11
S1136D302F2B0DD9BB7D392B0AD8BA6913469B007A
S1136D4013445B001A46BB7D1344303BBB6104E033
S1136D50FB69013BFB610123FB75FB7D002BE0D04C
S1136D6002E0FB69013BFB61FB68FA691A60BB69DD
S1136D7018462437BD465DF8047B704780B485B05F
S1136D8000AF0346FB710023FB60FB796F2B08D037
S1136D90FB79622B05D0FB79702B02D0FB79752B24
S1136DA001D10123FB60FB6818461437BD465DF82A
S1136DB0047B704780B485B000AF0346FB710023A9
S1136DC0FB60FB79642B02D0FB79692B01D1012391
S1136DD0FB60FB6818461437BD465DF8047B7047BA
S1136DE090B585B000AFF860B9607A60FB70BA689E
S1136DF07B68D31A7C6A2022F96AB86AA04708E043
S1136E003B6A5A1E3A621A787C6A0123F96AB86AA4
S1136E10A0473B6A1B78002BF2D100BF00BF143798
S1136E20BD4690BD90B585B000AFF860B9607A609A
S1136E30FB70BA687B68D31A7C6A2022F96AB86A44
S1136E40A04708E03B6A5A1E3A621A787C6A01231A
S1136E50F96AB86AA0473B6A1B78002BF2D100BFDD
S1136E6000BF1437BD4690BD80B485B000AF034663
S1136E70FB710023FB60FB79662B02D0FB79462B68
S1136E8001D10123FB60FB6818461437BD465DF849
S1136E90047B704780B485B000AF0346FB710023C8
S1136EA0FB60FB79782B02D0FB79582B01D10123AD
S1136EB0FB60FB6818461437BD465DF8047B7047D9
S1136EC080B485B000AF78607B681B68FB60FB68AA
S1136ED00133FB60FB681B78FB72FB7A682BF6D0EE
S1136EE0FB7A6C2BF3D0FB68013BFB607B68FA6890
S1136EF01A6000BF1437BD465DF8047B704780B448
S1136F0085B000AF0346FB71FB796F2B02D10823D8
S1136F10FB730DE0FB79622B02D10223FB7307E0C4
S1136F20FB79702B02D11023FB7301E00A23FB735E
S1136F30FB7B18461437BD465DF8047B704780B46C
S1136F408DB000AFF860B9607A603B600023FB61EC
S1136F50FB68BB61BB695A1CBA6100221A707B686A
S1136F60002B33D0BB681B68FB62FB6A002B29D162
S1136F70BB6930221A70FB690133FB61FB6960E075
S1136F80FA6A3B6892FBF3F33B613B693A6802FBA4
S1136F9003F3FA6AD31ABB62BB6A002B04DABB6A36
S1136FA0C3F13003BB6202E0BB6A3033BB623B69AE
S1136FB0FB62BB695A1CBA61BA6AD2B21A70FB6925
S1136FC00133FB61FB6A002BDAD139E0BB681B6833
S1136FD07B627B6A002B30D1BB6930221A70FB695B
S1136FE00133FB61FB692CE03B687A6AB2FBF3F383
S1136FF07B613B687A6902FB03F37A6AD31A3B62CA
S11370003B6A092B03D83B6A30333B620AE097F8AA
S11370103830002B01D0412200E061223B6A134446
S11370200A3B3B627B697B62BB695A1CBA613A6A60
S1137030D2B21A70FB690133FB617B6A002BD3D196
S1137040FB6918463437BD465DF8047B704790B53C
S11370509FB004AFF860B9607A603B600023FB65C1
S11370600023BB650023FB61002387F8573000230E
S11370707B61FB687B647B6C1B78002B00F02981AF
S11370807B6C1B7887F8563097F85630252B0BD03D
S113709097F8562007F11C013C6801237868A04743
S11370A07B6C01337B6413E1012387F8633007F1C0
S11370B0080207F1440311461846FFF7E4FD38655A
S11370C007F1080107F1440300221846FFF710FEF8
S11370D0F86407F144031846FFF7F2FE7B6C0133B2
S11370E07B647B6C1B7887F8563097F856301846CB
S11370F0FFF760FE0346012B25D1BB681A1DBA6059
S11371001B68BB6107F1180107F1200097F8633091
S113711000930A230122FFF712FFB86507F120024A
S1137120BB6D1344FB65BA6D07F11C0303937B68C5
S113713002933B680193FB6D00930023396D00209B
S1137140FFF74EFEC1E097F856301846FFF78CFE65
S11371500346012B06D1BB68073323F0070308332A
S1137160BB60B2E097F856301846FFF793FE03462B
S1137170012B2ED197F85630782B02D1002387F8B3
S11371806330BB681A1DBA601B687B6107F1140188
S113719007F1200097F86330009310230022FFF7D3
S11371A0CEFEB86507F12002BB6D1344FB65BA6DD2
S11371B097F8631007F11C0303937B6802933B6801
S11371C00193FB6D00930B46396D0020FFF72AFEF7
S11371D07BE097F856301846FFF7D0FD0346012BA5
S11371E02FD1BB681A1DBA601B687B6197F85630B3
S11371F01846FFF784FE034687F8573097F8572060
S113720007F1140107F1200097F863300093134647
S11372100022FFF794FEB86507F12002BB6D13440A
S1137220FB65BA6D07F11C0303937B6802933B680B
S11372300193FB6D00930023396D0020FFF7D0FD0F
S113724043E097F85630632B0DD1BB681A1DBA6022
S11372501B68BB64BB6CDAB207F11C013C680123F8
S11372607868A04731E097F85630732B25D1BB6876
S11372701A1DBA601B687B667B6E002B25D0786E66
S113728000F09BFF0346BB653A6DBB6DD31A07F153
S11372901C013C6820227868A04709E07B6E5A1CD8
S11372A07A661A7807F11C013C6801237868A047C4
S11372B07B6E1B78002BF1D107E097F8562007F17D
S11372C01C013C6801237868A0477B6C01337B6414
S11372D0D1E600BFFB6918466C37BD4690BD08B5C2
S11372E0FCF74BF908BD08B5FCF747F908BD08B52C
S11372F0FCF743F908BD08B5FCF73FF908BD08B52C
S1137300FCF73BF908BD08B5FCF737F908BD08B52B
S1137310FCF733F908BD08B5FCF72FF908BD08B52B
S1137320FCF72BF908BD08B5FCF727F908BD08B52B
S1137330FCF723F908BD08B5FCF71FF908BD08B52B
S1137340FCF71BF908BD08B5FCF717F908BD08B52B
S1137350FCF713F908BD08B5FCF70FF908BD08B52B
S1137360FCF70BF908BD08B5FCF707F908BD08B52B
S1137370FCF703F908BD08B5FCF7FFF808BD08B52C
S1137380FEF760F908BD08B5FEF770F908BD08B549
S1137390FEF780F908BD08B5FEF790F908BD08B5F9
S11373A0FEF7A0F908BD08B5FEF7B0F908BD08B5A9
S11373B0FEF7C0F908BD08B5FEF7D0F908BD08B559
S11373C0FEF7E0F908BD08B5FEF7F0F908BD08B509
S11373D0FEF700FA08BD08B5FCF7CFF808BD08B5FC
S11373E0FCF7CBF808BD08B5FCF7C7F808BD08B52D
S11373F0FCF7C3F808BD08B5FCF7BFF808BD08B52D
S1137400FCF7BBF808BD08B5FCF7B7F808BD08B52C
S1137410FCF7B3F808BD08B5FCF7AFF808BD08B52C
S1137420FCF7ABF808BD08B5FCF7A7F808BD08B52C
S1137430FCF7A3F808BD08B5FCF79FF808BD08B52C
S1137440FCF79BF808BD08B5FCF797F808BD08B52C
S1137450FCF793F808BD08B5FCF78FF808BD08B52C
S1137460FCF78BF808BD08B5FCF787F808BD08B52C
S1137470FCF783F808BD08B5FCF77FF808BD08B52C
S1137480FCF77BF808BD08B5FCF777F808BD08B52C
S1137490FCF773F808BD08B5FCF76FF808BD08B52C
S11374A0FCF76BF808BD08B5FCF767F808BD08B52C
S11374B0FCF763F808BD08B5FCF75FF808BD08B52C
S11374C0FCF75BF808BD08B5FCF757F808BD08B52C
S11374D0FCF753F808BD08B5FCF74FF808BD08B52C
S11374E0FCF74BF808BD08B5FCF747F808BD08B52C
S11374F0FCF743F808BD08B5FCF73FF808BD08B52C
S1137500FCF73BF808BD08B5FCF737F808BD08B52B
S1137510FCF733F808BD08B5FCF72FF808BD08B52B
S1137520FCF72BF808BD08B5FCF727F808BD08B52B
S1137530FCF723F808BD08B5FCF71FF808BD08B52B
S1137540FCF71BF808BD08B5FCF717F808BD08B52B
S1137550FCF713F808BD08B5FCF70FF808BD08B52B
S1137560FCF70BF808BD08B5FCF707F808BD08B52B
S1137570FCF703F808BD08B5FBF7FFFF08BD08B525
S1137580FBF7FBFF08BD08B5FBF7F7FF08BD08B51F
S1137590FBF7F3FF08BD08B5FBF7EFFF08BD08B51F
S11375A0FBF7EBFF08BD08B5FBF7E7FF08BD08B51F
S11375B0FBF7E3FF08BD08B5FBF7DFFF08BD08B51F
S11375C0FBF7DBFF08BD08B5FBF7D7FF08BD08B51F
S11375D0FBF7D3FF08BD08B5FBF7CFFF08BD08B51F
S11375E0FBF7CBFF08BD08B5FBF7C7FF08BD08B51F
S11375F0FBF7C3FF08BD08B5FBF7BFFF08BD08B51F
S1137600FBF7BBFF08BD08B5FBF7B7FF08BD08B51E
S1137610FBF7B3FF08BD08B5FBF7AFFF08BD08B51E
S1137620FBF7ABFF08BD08B5FBF7A7FF08BD08B51E
S1137630FBF7A3FF08BD08B5FBF79FFF08BD08B51E
S1137640FBF79BFF08BD08B5FBF797FF08BD08B51E
S1137650FBF793FF08BD08B5FBF78FFF08BD08B51E
S1137660FBF78BFF08BD08B5FBF787FF08BD08B51E
S1137670FBF783FF08BD08B5FBF77FFF08BD08B51E
S1137680FBF77BFF08BD08B5FBF777FF08BD08B51E
S1137690FBF773FF08BD08B5FBF76FFF08BD08B51E
S11376A0FBF76BFF08BD08B5FBF767FF08BD08B51E
S11376B0FBF763FF08BD08B5FBF75FFF08BD08B51E
S11376C0FBF75BFF08BD08B5FBF757FF08BD08B51E
S11376D0FBF753FF08BD08B5FBF74FFF08BD08B51E
S11376E0FBF74BFF08BD08B5FBF747FF08BD08B51E
S11376F0FBF743FF08BD08B5FBF73FFF08BD08B51E
S1137700FBF73BFF08BD08B5FBF737FF08BD08B51D
S1137710FBF733FF08BD08B5FBF72FFF08BD08B51D
S1137720FBF72BFF08BD08B5FBF727FF08BD08B51D
S1137730FBF723FF08BD08B5FBF71FFF08BD08B51D
S1137740FBF71BFF08BD08B5FBF717FF08BD08B51D
S1137750FBF713FF08BD08B5FBF70FFF08BD08B51D
S1137760FBF70BFF08BD08B5FBF707FF08BD08B51D
S1137770FBF703FF08BD08B5FBF7FFFE08BD08B51E
S1137780FBF7FBFE08BD08B5FBF7F7FE08BD08B51F
S1137790FBF7F3FE08BD08B5FBF7EFFE08BD08B51F
S11377A0FBF7EBFE08BD08B5FBF7E7FE08BD08B51F
S11377B0FBF7E3FE08BD08B5FBF7DFFE08BD08B51F
S11377C0FBF7DBFE08BD08B5FBF7D7FE08BD08B51F
S11377D0FBF7D3FE08BD08B5FBF7CFFE08BD08B51F
S11377E0FBF7CBFE08BD08B5FBF7C7FE08BD08B51F
S11377F0FBF7C3FE08BD08B5FBF7BFFE08BD08B51F
S1137800FBF7BBFE08BD08B5FBF7B7FE08BD08B51E
S1137810FBF7B3FE08BD08B5FBF7AFFE08BD08B51E
S1137820FBF7ABFE08BD08B5FBF7A7FE08BD08B51E
S1137830FBF7A3FE08BD08B5FBF79FFE08BD08B51E
S1137840FBF79BFE08BD08B5FBF797FE08BD08B51E
S1137850FBF793FE08BD08B5FBF78FFE08BD08B51E
S1137860FBF78BFE08BD08B5FBF787FE08BD08B51E
S1137870FBF783FE08BD08B5FBF77FFE08BD08B51E
S1137880FBF77BFE08BD08B5FBF777FE08BD08B51E
S1137890FBF773FE08BD08B5FBF76FFE08BD08B51E
S11378A0FBF76BFE08BD08B5FBF767FE08BD08B51E
S11378B0FBF763FE08BD08B5FBF75FFE08BD08B51E
S11378C0FBF75BFE08BD08B5FBF757FE08BD08B51E
S11378D0FBF753FE08BD08B5FBF74FFE08BD08B51E
S11378E0FBF74BFE08BD08B5FBF747FE08BD08B51E
S11378F0FBF743FE08BD08B5FBF73FFE08BD08B51E
S1137900FBF73BFE08BD08B5FBF737FE08BD08B51D
S1137910FBF733FE08BD08B5FBF72FFE08BD08B51D
S1137920FBF72BFE08BD08B5FBF727FE08BD08B51D
S1137930FBF723FE08BD08B5FBF71FFE08BD08B51D
S1137940FBF71BFE08BD08B5FBF717FE08BD08B51D
S1137950FBF713FE08BD08B5FBF70FFE08BD08B51D
S1137960FBF70BFE08BD08B5FBF707FE08BD08B51D
S1137970FBF703FE08BD08B5FBF7FFFD08BD08B51E
S1137980FBF7FBFD08BD08B5FBF7F7FD08BD08B51F
S1137990FBF7F3FD08BD08B5FBF7EFFD08BD08B51F
S11379A0FBF7EBFD08BD08B5FBF7E7FD08BD0420B8
S11379B07146084202D0EFF3098001E0EFF308803A
S11379C081690A884BF6AB639A4200D0FEE7023124
S11379D0816120210160704700BF80B582B000AF93
S11379E003463A60FB710B46BB71BA79F8793B6880
S11379F00121FBF7E9FF00BF0837BD4680BD80B514
S1137A0084B000AF03460A46FB711346BB71BA79D2
S1137A10F87900230021FBF7D7FFF860FB681846CC
S1137A201037BD4680BD80B586B000AFBA607B60BC
S1137A300346FB730B46BB73BA7BFB7B11461846AC
S1137A40FFF7DDFF78617B68DA437B691A40B96828
S1137A503B6A99407B680B4013437B61B97BFB7B9A
S1137A607A691846FFF7B9FF00BF1837BD4680BDD5
S1137A7080B500AF0020FCF7E9FA0346184680BD44
S1137A8080B582B000AF03460A46FB711346BB7152
S1137A90BB79002B01D0042100E00821BB79002B25
S1137AA002D04FF4C04201E04FF48042FB79184603
S1137AB0FFF793FF00BF0837BD4680BD80B582B095
S1137AC000AF03460A46FB711346BB71BB79002B1A
S1137AD001D0042100E00821FB794FF480321846DC
S1137AE0FFF77BFF00BF0837BD4680BD80B582B07D
S1137AF000AF03460A46FB711346BB71BB79002BEA
S1137B0001D0042100E00821FB794FF480021846DB
S1137B10FFF763FF00BF0837BD4680BD80B582B064
S1137B2000AF03460A46FB711346BB71BB79002BB9
S1137B3001D0042100E00821FB794FF400521846DB
S1137B40FFF74BFF00BF0837BD4680BD80B582B04C
S1137B5000AF03460A46FB711346BB71BB79002B89
S1137B6001D0042100E00821FB794FF400421846BB
S1137B70FFF733FF00BF0837BD4680BD80B582B034
S1137B8000AF03460A46FB711346BB71BB79002B59
S1137B9001D0042100E00821FB794FF4004218468B
S1137BA0FFF71BFF00BF0837BD4680BD80B500AF9F
S1137BB00020FCF771FE0120FCF74AFE00210220A0
S1137BC0FFF7DCFF00210220FFF75AFF002102200B
S1137BD0FFF7BCFF00210220FFF788FF00BF80BD34
S1137BE080B500AF0020FCF799FF0020FCF74EFFA2
S1137BF00020FCF76FFF0120FCF724FF0021012087
S1137C00FFF7BCFF00210120FFF73AFF002101200C
S1137C10FFF79CFF00210120FFF768FF00BF80BD34
S1137C2080B584B000AF0346FB7130210420FFF718
S1137C30E6FEF860FB6823F4A063FB60FB79002B8D
S1137C4004D1FB6843F48073FB6006E0FB79012BED
S1137C5003D1FB6843F48063FB60FA68302104209D
S1137C60FFF7BBFE00BF1037BD4680BD80B483B0B4
S1137C7000AF78607B681846A0F101000028FBD1B2
S1137C8000BF0C37BD465DF8047B704780B582B0F9
S1137C9000AF0346FB71FB7901211846FDF734F967
S1137CA000BF0837BD4680BD80B584B000AFF86022
S1137CB0B9601346FB71FB791A46B968F868FDF799
S1137CC0EDF900BF1037BD4680BD80B582B000AF6E
S1137CD00346FB71FB7901211846FDF75DFA00BFED
S1137CE00837BD4680BD80B483B000AF78607B6840
S1137CF09B6843F002027B689A607B689B6823F070
S1137D0002027B689A6000BF0C37BD465DF8047BB5
S1137D10704780B400AF00BFBD465DF8047B704778
S1137D2080B400AF00BFBD465DF8047B704780B4EB
S1137D3085B000AF78607B68002B02D10023FB8103
S1137D4002E042F6AF73FB81FB8918461437BD4647
S1137D505DF8047B704780B483B000AFEFF3108309
S1137D603B603B687B6072B600BF7B6818460C378B
S1137D70BD465DF8047B704780B485B000AF786081
S1137D807B68FB60FB6883F3108800BF00BF143777
S1137D90BD465DF8047B704780B586B000AFF860DF
S1137DA0B9607A603B6043F22153FB82FB681B7825
S1137DB0012B08D1FB680C333A687968184600F047
S1137DC0E0F80346FB82FB8A18461837BD4680BD9F
S1137DD080B586B000AFF860B9607A60FB68002BAC
S1137DE0FCD0BB68002BFCD07B68002BFCD0FB686C
S1137DF07B617B691B683B613B69002BFCD07B6822
S1137E00BA6879693869FFF7C7FF03461846183717
S1137E10BD4680BD80B584B000AF7860396043F260
S1137E202153FB813B68002BFCD07B68002BFCD0EA
S1137E3000BF7B68BB6014220021B86800F084F99D
S1137E403B681A7ABB681A703B681B7A012B0BD10A
S1137E50BB6803F10C023B68DB681946104600F06E
S1137E6071F80346FB8100E000BFFB891846103718
S1137E70BD4680BD80B586B000AF786039607B6850
S1137E80002BFCD03B68002BFCD000BF7B687B61DF
S1137E903B683B61FFF75FFFF8607B699B685A1C96
S1137EA07B699A60F868FFF767FF0422002138684D
S1137EB000F04AF93B697A691A60002318461837BA
S1137EC0BD4680BD80B586B000AF786039600023C0
S1137ED0FB827B68002BFCD03B68002BFCD000BFEE
S1137EE07B683B613B68FB60FFF735FFB8603B692B
S1137EF05B68002B03D043F22253FB820AE03B6908
S1137F00FA685A6004220021386800F01DF9FB6801
S1137F103A691A60B868FFF72FFFFB8A18461837CA
S1137F20BD4680BD80B584B000AFF860B9607A60AA
S1137F307A68B968F868FFF74BFF034618461037AC
S1137F40BD4680BD80B584B000AF78603960002341
S1137F50FB813B68002BFCD07B68002BFCD000BF6E
S1137F607B68BB60BB6839681846FDF7DBFE0346D7
S1137F70FB81FB89002BFCD1FB8918461037BD46D9
S1137F8080BD80B586B000AFF860B9607A60FB68E8
S1137F90002BFCD0BB68002BFCD07B68002BFCD0F2
S1137FA0FB687B617B697A68B9681846FDF73AFF1C
S1137FB0034618461837BD4680BD80B500AF19206A
S1137FC0FDF78CFF0346184680BD80B582B000AF34
S1137FD0FFF7F3FF78607B6801224FF4E131012061
S1137FE0FBF77CFB00BF0837BD4680BD80B485B07D
S1137FF000AF78600B46FB701346BB70FB78082B10
S11380000CD97B689B6823F00303FB60BB7803F007
S11380100302FB681A437B689A6037E0FB78062BFF
S11380200CD97B685B6823F00303FB60BB7803F027
S11380300302FB681A437B685A6027E0FB78032B32
S113804012D97B681A68FB78032101FA03F3DB4336
S11380501340FB60BB7803F00302FB789A40FB6893
S11380601A437B681A6011E07B681A68FB78072161
S113807001FA03F3DB431340FB60BB7803F0070210
S1138080FB789A40FB681A437B681A6000BF143778
S1138090BD465DF8047B704780B483B000AF786060
S11380A00B46FB707B685B6923F000527B685A6166
S11380B07B685B6823F4F852FB781B0203F4F853E3
S11380C01A437B685A6000BF7B689B6803F00043D7
S11380D0B3F1004FF8D100BF00BF0C37BD465DF8C7
S11380E0047B704780B582B000AF0346FB71FB7917
S11380F001211846FEF70EFC00BF0837BD4680BDBF
S113810080B485B000AFF860B9607A603B60BB684A
S113811003F00F01FB691B0103F01002FB680A4323
S11381201A607B68002B02D07B683A681A6000BF33
S11381301437BD465DF8047B704708B5FEF740FC74
S1138140BDE80840FBF706BC00F0E9B9A8B14FF060
S1138150805340F80C3C50F8042C72B11368B3F10E
S1138160805F0AD150F8083C516803330B4440F84F
S1138170083C936840F8043CEDE7704770B5C46868
S1138180A50708D0B2F5007F11D0B2F5806F04D0F6
S1138190B2F5807F0BD0012008E000F12401012317
S11381A0224301610160C361C260002070BD5E1E94
S11381B06FF07F45AE42F3D3EDE7431C10B5820761
S11381C0044614D1204654F8042BA2F1013121EACB
S11381D0020111F0803FF5D0D1B281B112F47F4F8A
S11381E00BD012F47F0F14BF2046033003E010F8C5
S11381F0012B002AE3D1C01A10BD0230FBE7013085
S1138200F9E7C368826923F0200310B5C36004460C
S1138210836A9A420ED000F048F8E36823F440538E
S113822023F0100343F01003E360A36AA3612369FE
S1138230E3622360E36823F4804323F04003E360B4
S113824010BD70B50D4606461046144600F056F8AB
S11382502B78722B17D0772B18D0612B23D10823BE
S113826048F2020215F8011F2B2912D0622915D0F9
S11382701B07E260666104D5022200212046FEF756
S11382802FFC204670BD00230122EBE704230222C9
S1138290E8E742F0030243F00203E3E742F004029A
S11382A043F00103DEE70024EBE738B50168044638
S11382B00569C36AC06820F40022E26000F082020B
S11382C0022A02D04FF0FF3038BD10F48030FBD0CA
S11382D0994238BF19468D4208D1E3680020E5620F
S11382E023F480332560A060E360EDE72246491B58
S11382F02846FEF7A1FB0028EFD0E3E7F0B5C468F9
S113830089B00546A10722D0220718D4D0E9046712
S1138310FEF7C8FB384600F01BF9230502D53046AA
S1138320FFF714FFA40DA40514F1A54F07D12022D3
S1138330296A684600F01BF9684600F00BF83C22F5
S113834000212846FFF700FF002009B0F0BD4FF0E0
S1138350FF30FAE710B50446FFF72FFF0146204629
S1138360BDE8104000F0FDB8C36870B513F0030613
S1138370044611D09B0611D5856AFFF742FFE368D6
S1138380204623F44053E360FFF78FFF00220646A4
S113839029462046FEF7A4FB304670BD8169056876
S11383A00D4401696D1AEAE75FF0000C30B51C005A
S11383B022D112006FD0914206D30546084600210F
S11383C000F06FF80446284600F06BF80A46214690
S11383D0BDE830401CF0404F08BF704703D5494208
S11383E0404261F100015FEA8C0C38BF70475B4288
S11383F0524263F10003704742D41C0C04BF1B04B7
S11384000CF1100C13F07F4F04BF1B020CF1080C8D
S113841013F0704F04BF1B010CF1040C13F0404F18
S113842004BF0CF1020C5FEA83035CBF0CF1010C86
S11384305B00CCF1200E22FA0EF4234302FA0CF274
S113844000FA0CF520FA0EF001FA0CF4204321FA9C
S11384500EF114461A4600F024F8A4FB0023AA1ACD
S113846071EB03033CBF1B190138CCF1200E22FA37
S11384700CF203FA0EF4224323FA0CF30021A7E7CB
S1138480821A71EB03033CBF02460B464FF0000116
S113849041F100009CE700200021BDE8304000F0DD
S11384A03DB80423B1EB122F09D2090241EA10614D
S11384B00002013B08BF7047B1EB122FF5D300183F
S11384C0494134BF9142891A4041494134BF9142E4
S11384D0891A4041494134BF9142891A4041494176
S11384E034BF9142891A4041494134BF9142891AAB
S11384F04041494134BF9142891A4041494134BF06
S11385009142891A4041494134BF9142891A4041FC
S1138510A3F1010313F00F0FD2D170477047034644
S113852013F0030F0ED101F0FF0141EA012141EAEA
S11385300141043A24BF43F8041BB2F10402F9D206
S113854002F10402013A24BF03F8011BFAE7704761
S11385504FF0FF3070474FF0FF3070474FF0FF305F
S113856070474FF0FF3070474FF0FF3070474FF0C7
S1138570FF307047104670474153534552542045CD
S113858052524F522022202573200A000205030074
S113859007160F1C02050300140F09180205030037
S11385A00F18090D02050300140F09180205030032
S11385B018090B11020503001018090D0205030028
S11385C010180B0902050300140F0A180205030012
S11385D00910180A020503001018090D020503000A
S11385E01018090D020503000F181A0D02050300E7
S11385F01018090D020503001018090D02050300E7
S1138600101813140205030010181A1C02050300A5
S113861010181A1C02050300101813140205030095
S11386201018131402050300101813140205030094
S113863011090C0F0205030011090C0F02050300B8
S11386401018090D020503001018090D0205030096
S1138650140F0D18020503001018090D020503007C
S11386601018090D020503001018090D0205030076
S11386701018090D020503001018090D0205030066
S11386801018090D020503001018090D0205030056
S11386901018090D020503001018090D0205030046
S11386A01018090D02050300140F0D18020503002C
S11386B0140F0D18020503001018090D020503001C
S11386C01018090D020503001018090D0205030016
S11386D01018090D02050300140F0D1802050300FC
S11386E0140F0D18020503001318090D02050300E9
S11386F01318090D020503001318090D02050300E0
S11387001318090D02050300140F131802050300C2
S1138710140F1318020503001018090D02050300B5
S11387201018090D02050300171A180B020503009F
S1138730171A180B02050300171A180B0205030079
S1138740171A180B02050300171A180B0205030069
S1138750171A180B02050300171A180B0205030059
S11387600C0A1807020503000C0A18070205030087
S113877018101A0D0205030018101A0D0205030043
S1138780140F1A18020503001A0F130D0205030033
S11387901A13180D020503001A13180D020503001D
S11387A01A13180D02050300140F1A18020503000A
S11387B0090B0F1C02050300090C111C0205030020
S11387C0090C111C02050300090A111C020503000F
S11387D0090A111C020503000C0F0A1C0205030000
S11387E00C0F0A1C020503000C0F0A1C02050300EF
S11387F00C0F121C020503000C09121802050300D9
S11388000D01121A66736C5F636C6F636B2E683AAA
S113881032323237203A20667265710066736C5FBB
S1138820636C6F636B2E633A313139203A202863CD
S11388306F6E6669672D3E6C6F6F7044697669640C
S11388406572203C3D202875696E7433325F74294B
S113885041524D5F504C4C5F4449565F53454C5F09
S11388604D4158292026262028636F6E6669672D9E
S11388703E6C6F6F7044697669646572203E3D207A
S11388802875696E7433325F742941524D5F504CC0
S11388904C5F4449565F53454C5F4D494E2900FF98
S11388A066736C5F636C6F636B2E633A323931208D
S11388B03A2066726163203C3D202875696E7438E5
S11388C05F74295046445F465241435F4D415820EE
S11388D026262066726163203E3D202875696E74E9
S11388E0385F74295046445F465241435F4D494EB8
S11388F00000000066736C5F636C6F636B2E633AF9
S1138900333034203A2066616C73650066736C5FA3
S1138910636C6F636B2E633A333236203A202870CF
S11389206C6C203D3D206B434C4F434B5F506C6C53
S11389305379733229207C7C2028706C6C203D3D57
S1138940206B434C4F434B5F506C6C53797333290A
S11389500000000066736C5F636C6F636B2E633A98
S1138960333431203A2066616C73650066736C5F42
S1138970636C6F636B2E633A333436203A20286677
S1138980726163203E3D202875696E7433325F74D2
S1138990295046445F465241435F4D494E292026A3
S11389A026202866726163203C3D202875696E7418
S11389B033325F74295046445F465241435F4D4110
S11389C0582900FF66736C5F636C6F636B2E633AA8
S11389D0343638203A20300066736C5F636C6F6302
S11389E06B2E633A31333434203A2028706C6C2077
S11389F03D3D206B434C4F434B5F506C6C41756461
S1138A00696F29207C7C2028706C6C203D3D206B94
S1138A10434C4F434B5F506C6C566964656F29003F
S1138A2066736C5F636C6F636B2E633A31343137FA
S1138A30203A2066616C73650000000066736C5F09
S1138A40636C6F636B2E633A31343230203A2066A4
S1138A507265710066736C5F636C6F636B2E633A4F
S1138A6031353234203A2066616C736500000000B1
S1138A7066736C5F636C6F636B2E633A31353237A8
S1138A80203A20667265710066736C5F636F6D6D6A
S1138A906F6E2E633A323734203A20305520213D10
S1138AA02064656C617954696D655F7573000000BD
S1138AB066736C5F636F6D6D6F6E2E633A3237361B
S1138AC0203A20636F756E74203C3D2055494E5406
S1138AD033325F4D415800FF0000000000C01240D7
S1138AE000001340004013400080134000C01340B6
S1138AF00000144000C0C5400000C6400040C6400D
S1138B000080C64000C0C6400000C7400000CA4004
S1138B100080004200C000428A333333333333339E
S1138B20333333333333FFFF66736C5F6770696FBE
S1138B302E633A3537203A20696E7374616E63652B
S1138B40203C2041525241595F53495A4528735F92
S1138B506770696F42617365732900FF66736C5FA8
S1138B606770696F2E633A313133203A2070696E31
S1138B70203C2033325500FF0000000000C00740B5
S1138B8000000840004008400080084000C0084041
S1138B9000000940004009400080094000C009402D
S1138BA000000A400040C2400080C2408A56575824
S1138BB0595A5B5C5D5E5F6061FFFFFF66736C5FCB
S1138BC06C70756172742E633A313236203A2069C2
S1138BD06E7374616E6365203C2041525241595F4B
S1138BE053495A4528735F6C70756172744261739E
S1138BF06573290066736C5F6C70756172742E63A3
S1138C003A323435203A204E554C4C20213D2063D5
S1138C106F6E66696700000066736C5F6C707561E7
S1138C2072742E633A323436203A203055203C2078
S1138C30636F6E6669672D3E626175645261746527
S1138C405F4270730000000066736C5F6C70756146
S1138C5072742E633A323438203A202875696E745F
S1138C60385F742946534C5F464541545552455F1D
S1138C704C50554152545F4649464F5F53495A45FB
S1138C806E286261736529203E3D20636F6E6669BC
S1138C90672D3E74784669666F57617465726D61BD
S1138CA0726B000066736C5F6C70756172742E6316
S1138CB03A323439203A202875696E74385F742941
S1138CC046534C5F464541545552455F4C505541BF
S1138CD052545F4649464F5F53495A456E28626174
